{
  "address": "0xe7f1725E7734CE288F8367e1Bb143E90bb3F0512",
  "abi": [
    {
      "anonymous": false,
      "inputs": [
        {
          "indexed": true,
          "internalType": "address",
          "name": "author",
          "type": "address"
        },
        {
          "indexed": false,
          "internalType": "string",
          "name": "title",
          "type": "string"
        },
        {
          "indexed": false,
          "internalType": "string",
          "name": "content",
          "type": "string"
        },
        {
          "indexed": false,
          "internalType": "string",
          "name": "imageHash",
          "type": "string"
        }
      ],
      "name": "NewPost",
      "type": "event"
    },
    {
      "inputs": [
        {
          "internalType": "string",
          "name": "title",
          "type": "string"
        },
        {
          "internalType": "string",
          "name": "content",
          "type": "string"
        },
        {
          "internalType": "string",
          "name": "imageHash",
          "type": "string"
        }
      ],
      "name": "publish",
      "outputs": [],
      "stateMutability": "nonpayable",
      "type": "function"
    }
  ],
  "transactionHash": "0xb7bdc68f4c146c41d7935f4a27fa668cbe2238480a8173b3ad97aa88b24d93f4",
  "args": [],
  "solcInputHash": "cfc64cdfac916a5ffdb308283acaac8b",
  "bytecode": "0x608060405234801561001057600080fd5b5061026e806100206000396000f3fe608060405234801561001057600080fd5b506004361061002b5760003560e01c80636d25e37714610030575b600080fd5b61004361003e366004610110565b610045565b005b336001600160a01b03167f02b42c217a9309d91c357dc804342fd0e9eb201b6d538136212217fbff28ce05848484604051610082939291906101df565b60405180910390a2505050565b600082601f83011261009f578081fd5b813567ffffffffffffffff808211156100ba576100ba610222565b604051601f8301601f1916810160200182811182821017156100de576100de610222565b6040528281528483016020018610156100f5578384fd5b82602086016020830137918201602001929092529392505050565b600080600060608486031215610124578283fd5b833567ffffffffffffffff8082111561013b578485fd5b6101478783880161008f565b9450602086013591508082111561015c578384fd5b6101688783880161008f565b9350604086013591508082111561017d578283fd5b5061018a8682870161008f565b9150509250925092565b60008151808452815b818110156101b95760208185018101518683018201520161019d565b818111156101ca5782602083870101525b50601f01601f19169290920160200192915050565b6000606082526101f26060830186610194565b82810360208401526102048186610194565b905082810360408401526102188185610194565b9695505050505050565b634e487b7160e01b600052604160045260246000fdfea26469706673582212205c334c20586a68e8d7e59363ad08864a591eb257898b113fb51814de75f736e864736f6c63430008000033",
  "devdoc": {
    "kind": "dev",
    "methods": {},
    "version": 1
  },
  "userdoc": {
    "kind": "user",
    "methods": {},
    "version": 1
  },
  "storageLayout": {
    "storage": [],
    "types": null
  }
}