{
  "address": "0xEA6119D5C1a4c8E3BE691dA68aD23d55a975B93C",
  "abi": [
    {
      "inputs": [],
      "stateMutability": "nonpayable",
      "type": "constructor"
    },
    {
      "anonymous": false,
      "inputs": [
        {
          "indexed": true,
          "internalType": "address",
          "name": "initiator",
          "type": "address"
        },
        {
          "indexed": false,
          "internalType": "bytes",
          "name": "signature",
          "type": "bytes"
        },
        {
          "indexed": false,
          "internalType": "bytes32",
          "name": "requestId",
          "type": "bytes32"
        }
      ],
      "name": "BeginVerification",
      "type": "event"
    },
    {
      "anonymous": false,
      "inputs": [
        {
          "indexed": true,
          "internalType": "bytes32",
          "name": "id",
          "type": "bytes32"
        }
      ],
      "name": "ChainlinkCancelled",
      "type": "event"
    },
    {
      "anonymous": false,
      "inputs": [
        {
          "indexed": true,
          "internalType": "bytes32",
          "name": "id",
          "type": "bytes32"
        }
      ],
      "name": "ChainlinkFulfilled",
      "type": "event"
    },
    {
      "anonymous": false,
      "inputs": [
        {
          "indexed": true,
          "internalType": "bytes32",
          "name": "id",
          "type": "bytes32"
        }
      ],
      "name": "ChainlinkRequested",
      "type": "event"
    },
    {
      "anonymous": false,
      "inputs": [
        {
          "indexed": true,
          "internalType": "address",
          "name": "initiator",
          "type": "address"
        },
        {
          "indexed": false,
          "internalType": "bytes32",
          "name": "verifiedHandle",
          "type": "bytes32"
        },
        {
          "indexed": false,
          "internalType": "bytes32",
          "name": "requestId",
          "type": "bytes32"
        }
      ],
      "name": "ConfirmVerification",
      "type": "event"
    },
    {
      "inputs": [
        {
          "internalType": "bytes32",
          "name": "_bytes32",
          "type": "bytes32"
        }
      ],
      "name": "bytes32ToString",
      "outputs": [
        {
          "internalType": "string",
          "name": "",
          "type": "string"
        }
      ],
      "stateMutability": "pure",
      "type": "function"
    },
    {
      "inputs": [
        {
          "internalType": "bytes32",
          "name": "_requestId",
          "type": "bytes32"
        },
        {
          "internalType": "bytes32",
          "name": "_handle",
          "type": "bytes32"
        }
      ],
      "name": "fulfill",
      "outputs": [],
      "stateMutability": "nonpayable",
      "type": "function"
    },
    {
      "inputs": [],
      "name": "lastHandle",
      "outputs": [
        {
          "internalType": "bytes32",
          "name": "",
          "type": "bytes32"
        }
      ],
      "stateMutability": "view",
      "type": "function"
    },
    {
      "inputs": [
        {
          "internalType": "bytes32",
          "name": "",
          "type": "bytes32"
        }
      ],
      "name": "requestIdToAddress",
      "outputs": [
        {
          "internalType": "address",
          "name": "",
          "type": "address"
        }
      ],
      "stateMutability": "view",
      "type": "function"
    },
    {
      "inputs": [
        {
          "internalType": "bytes",
          "name": "signature",
          "type": "bytes"
        },
        {
          "internalType": "string",
          "name": "tweetId",
          "type": "string"
        }
      ],
      "name": "requestTwitterVerification",
      "outputs": [
        {
          "internalType": "bytes32",
          "name": "requestId",
          "type": "bytes32"
        }
      ],
      "stateMutability": "nonpayable",
      "type": "function"
    },
    {
      "inputs": [
        {
          "internalType": "address",
          "name": "",
          "type": "address"
        }
      ],
      "name": "userToSignature",
      "outputs": [
        {
          "internalType": "bytes",
          "name": "",
          "type": "bytes"
        }
      ],
      "stateMutability": "view",
      "type": "function"
    },
    {
      "inputs": [
        {
          "internalType": "address",
          "name": "",
          "type": "address"
        }
      ],
      "name": "verifiedHandle",
      "outputs": [
        {
          "internalType": "bytes32",
          "name": "",
          "type": "bytes32"
        }
      ],
      "stateMutability": "view",
      "type": "function"
    }
  ],
  "transactionHash": "0x4ea07328f20f67550dcb009817a24130c59940b0a1c6247c9eab991d0db2a2dc",
  "args": [],
  "solcInputHash": "36e8fca3866cf5cf000ccac16b7ac810",
  "bytecode": "0x6080604052600160045534801561001557600080fd5b5061003373326c977e6efc84e512bb9c30f76e30c160ed06fb61008e565b600980546001600160a01b03191673373ed9e1de6b01ea2e479e012624bdd01e6fc2381790557f3531643230666439346664653436663938343935643633333133626265353166600a5567016345785d8a0000600b556100b0565b600280546001600160a01b0319166001600160a01b0392909216919091179055565b610eea806100bf6000396000f3fe608060405234801561001057600080fd5b506004361061007d5760003560e01c806395670cd31161005b57806395670cd314610278578063a00dea0e14610280578063b56f12d1146102a6578063bc64beee146102cc5761007d565b8063042f2b65146100825780632847a5a8146100a75780639201de55146101e6575b600080fd5b6100a56004803603604081101561009857600080fd5b5080359060200135610305565b005b6101d4600480360360408110156100bd57600080fd5b8101906020810181356401000000008111156100d857600080fd5b8201836020820111156100ea57600080fd5b8035906020019184600183028401116401000000008311171561010c57600080fd5b91908080601f016020809104026020016040519081016040528093929190818152602001838380828437600092019190915250929594936020810193503591505064010000000081111561015f57600080fd5b82018360208201111561017157600080fd5b8035906020019184600183028401116401000000008311171561019357600080fd5b91908080601f0160208091040260200160405190810160405280939291908181526020018383808284376000920191909152509295506103a6945050505050565b60408051918252519081900360200190f35b610203600480360360208110156101fc57600080fd5b503561052e565b6040805160208082528351818301528351919283929083019185019080838360005b8381101561023d578181015183820152602001610225565b50505050905090810190601f16801561026a5780820380516001836020036101000a031916815260200191505b509250505060405180910390f35b6101d461063b565b6101d46004803603602081101561029657600080fd5b50356001600160a01b0316610641565b610203600480360360208110156102bc57600080fd5b50356001600160a01b0316610653565b6102e9600480360360208110156102e257600080fd5b50356106ee565b604080516001600160a01b039092168252519081900360200190f35b60008281526005602052604090205482906001600160a01b0316331461035c5760405162461bcd60e51b8152600401808060200182810382526028815260200180610e8d6028913960400191505060405180910390fd5b60008181526005602052604080822080546001600160a01b03191690555182917f7cc135e0cebb02c3480ae5d74d377283180a2601f8f644edf7987b009316c63a91a250600c5550565b336000908152600660209081526040822084516103c592860190610d87565b506103ce610e05565b600a546103e3903063042f2b6560e01b610709565b6040805180820190915260098152687369676e617475726560b81b60208201529091506104129082908661072e565b6040805180820190915260078152661d1dd9595d125960ca1b602082015261043c9082908561072e565b600954600b5460009161045c916001600160a01b03909116908490610751565b600081815260076020908152604080832080546001600160a01b0319163390811790915581518084018690528281528a51928101929092528951949550937fd390331e3366daff21b54ded327450a21827abfaaca0e5bba3804feb4b30a9d5938a9387939283926060840192870191908190849084905b838110156104eb5781810151838201526020016104d3565b50505050905090810190601f1680156105185780820380516001836020036101000a031916815260200191505b50935050505060405180910390a2505092915050565b606060005b60208160ff161080156105615750828160ff166020811061055057fe5b1a60f81b6001600160f81b03191615155b1561056e57600101610533565b60608160ff1667ffffffffffffffff8111801561058a57600080fd5b506040519080825280601f01601f1916602001820160405280156105b5576020820181803683370190505b509050600091505b60208260ff161080156105eb5750838260ff16602081106105da57fe5b1a60f81b6001600160f81b03191615155b1561063457838260ff16602081106105ff57fe5b1a60f81b818360ff168151811061061257fe5b60200101906001600160f81b031916908160001a9053506001909101906105bd565b9392505050565b600c5481565b60086020526000908152604090205481565b60066020908152600091825260409182902080548351601f6002600019610100600186161502019093169290920491820184900484028101840190945280845290918301828280156106e65780601f106106bb576101008083540402835291602001916106e6565b820191906000526020600020905b8154815290600101906020018083116106c957829003601f168201915b505050505081565b6007602052600090815260409020546001600160a01b031681565b610711610e05565b610719610e05565b6107258186868661091f565b95945050505050565b608083015161073d908361095c565b608083015161074c908261095c565b505050565b6004546040805130606090811b60208084019190915260348084018690528451808503909101815260549093018452825192810192909220908601939093526000838152600590915281812080546001600160a01b0319166001600160a01b038816179055905182917fb5e6e01e79f91267dc17b4e6314d5d4d03593d2ceee0fbb452b750bd70ea5af991a26002546001600160a01b0316634000aea085846107f987610973565b6040518463ffffffff1660e01b815260040180846001600160a01b0316815260200183815260200180602001828103825283818151815260200191508051906020019080838360005b8381101561085a578181015183820152602001610842565b50505050905090810190601f1680156108875780820380516001836020036101000a031916815260200191505b50945050505050602060405180830381600087803b1580156108a857600080fd5b505af11580156108bc573d6000803e3d6000fd5b505050506040513d60208110156108d257600080fd5b505161090f5760405162461bcd60e51b8152600401808060200182810382526023815260200180610e6a6023913960400191505060405180910390fd5b6004805460010190559392505050565b610927610e05565b6109378560800151610100610a97565b50509183526001600160a01b031660208301526001600160e01b031916604082015290565b6109698260038351610ad7565b61074c8282610bb1565b6060634042994660e01b6000808460000151856020015186604001518760600151600189608001516000015160405160240180896001600160a01b03168152602001888152602001878152602001866001600160a01b03168152602001856001600160e01b031916815260200184815260200183815260200180602001828103825283818151815260200191508051906020019080838360005b83811015610a25578181015183820152602001610a0d565b50505050905090810190601f168015610a525780820380516001836020036101000a031916815260200191505b5060408051601f198184030181529190526020810180516001600160e01b03166001600160e01b0319909d169c909c17909b5250989950505050505050505050919050565b610a9f610e3a565b6020820615610ab45760208206602003820191505b506020808301829052604080518085526000815283019091019052815b92915050565b60178111610af857610af28360e0600585901b168317610bcb565b5061074c565b60ff8111610b2257610b15836018611fe0600586901b1617610bcb565b50610af283826001610be3565b61ffff8111610b4d57610b40836019611fe0600586901b1617610bcb565b50610af283826002610be3565b63ffffffff8111610b7a57610b6d83601a611fe0600586901b1617610bcb565b50610af283826004610be3565b67ffffffffffffffff811161074c57610b9e83601b611fe0600586901b1617610bcb565b50610bab83826008610be3565b50505050565b610bb9610e3a565b61063483846000015151848551610c04565b610bd3610e3a565b6106348384600001515184610cb0565b610beb610e3a565b610bfc848560000151518585610cfb565b949350505050565b610c0c610e3a565b8251821115610c1a57600080fd5b84602001518285011115610c4457610c4485610c3c8760200151878601610d59565b600202610d70565b600080865180518760208301019350808887011115610c635787860182525b505050602084015b60208410610c8a5780518252601f199093019260209182019101610c6b565b51815160001960208690036101000a019081169019919091161790525083949350505050565b610cb8610e3a565b83602001518310610cd457610cd4848560200151600202610d70565b835180516020858301018481535080851415610cf1576001810182525b5093949350505050565b610d03610e3a565b84602001518483011115610d2057610d2085858401600202610d70565b60006001836101000a039050855183868201018583198251161781525080518487011115610d4e5783860181525b509495945050505050565b600081831115610d6a575081610ad1565b50919050565b8151610d7c8383610a97565b50610bab8382610bb1565b828054600181600116156101000203166002900490600052602060002090601f016020900481019282601f10610dc857805160ff1916838001178555610df5565b82800160010185558215610df5579182015b82811115610df5578251825591602001919060010190610dda565b50610e01929150610e54565b5090565b6040805160a081018252600080825260208201819052918101829052606081019190915260808101610e35610e3a565b905290565b604051806040016040528060608152602001600081525090565b5b80821115610e015760008155600101610e5556fe756e61626c6520746f207472616e73666572416e6443616c6c20746f206f7261636c65536f75726365206d75737420626520746865206f7261636c65206f66207468652072657175657374a26469706673582212202cb5f35af439355d5add39923834df09fbe047d3422e7141196b6171c82300bc64736f6c634300060c0033",
  "libraries": {
    "Signature": "0x5f4F053F0cD85D0b82D3B7b25D783793A7563964"
  },
  "devdoc": {
    "kind": "dev",
    "methods": {},
    "version": 1
  },
  "userdoc": {
    "kind": "user",
    "methods": {
      "constructor": "Network: Mumbai Link: 0x326C977E6efc84E512bB9C30f76E30c160eD06FB Oracle: 0x373ed9E1De6B01ea2e479E012624Bdd01E6fC238 Job ID: 51d20fd94fde46f98495d63313bbe51f Fee: 0.1 LINK",
      "fulfill(bytes32,bytes32)": {
        "notice": "Receive the response in the form of uint256"
      }
    },
    "version": 1
  },
  "storageLayout": {
    "storage": [
      {
        "astId": 303,
        "contract": "contracts/TwitterVerification.sol:TwitterVerification",
        "label": "ens",
        "offset": 0,
        "slot": "0",
        "type": "t_contract(ENSInterface)828"
      },
      {
        "astId": 305,
        "contract": "contracts/TwitterVerification.sol:TwitterVerification",
        "label": "ensNode",
        "offset": 0,
        "slot": "1",
        "type": "t_bytes32"
      },
      {
        "astId": 307,
        "contract": "contracts/TwitterVerification.sol:TwitterVerification",
        "label": "link",
        "offset": 0,
        "slot": "2",
        "type": "t_contract(LinkTokenInterface)923"
      },
      {
        "astId": 309,
        "contract": "contracts/TwitterVerification.sol:TwitterVerification",
        "label": "oracle",
        "offset": 0,
        "slot": "3",
        "type": "t_contract(ChainlinkRequestInterface)748"
      },
      {
        "astId": 312,
        "contract": "contracts/TwitterVerification.sol:TwitterVerification",
        "label": "requestCount",
        "offset": 0,
        "slot": "4",
        "type": "t_uint256"
      },
      {
        "astId": 316,
        "contract": "contracts/TwitterVerification.sol:TwitterVerification",
        "label": "pendingRequests",
        "offset": 0,
        "slot": "5",
        "type": "t_mapping(t_bytes32,t_address)"
      },
      {
        "astId": 2351,
        "contract": "contracts/TwitterVerification.sol:TwitterVerification",
        "label": "userToSignature",
        "offset": 0,
        "slot": "6",
        "type": "t_mapping(t_address,t_bytes_storage)"
      },
      {
        "astId": 2355,
        "contract": "contracts/TwitterVerification.sol:TwitterVerification",
        "label": "requestIdToAddress",
        "offset": 0,
        "slot": "7",
        "type": "t_mapping(t_bytes32,t_address)"
      },
      {
        "astId": 2359,
        "contract": "contracts/TwitterVerification.sol:TwitterVerification",
        "label": "verifiedHandle",
        "offset": 0,
        "slot": "8",
        "type": "t_mapping(t_address,t_bytes32)"
      },
      {
        "astId": 2362,
        "contract": "contracts/TwitterVerification.sol:TwitterVerification",
        "label": "oracle",
        "offset": 0,
        "slot": "9",
        "type": "t_address"
      },
      {
        "astId": 2364,
        "contract": "contracts/TwitterVerification.sol:TwitterVerification",
        "label": "jobId",
        "offset": 0,
        "slot": "10",
        "type": "t_bytes32"
      },
      {
        "astId": 2366,
        "contract": "contracts/TwitterVerification.sol:TwitterVerification",
        "label": "fee",
        "offset": 0,
        "slot": "11",
        "type": "t_uint256"
      },
      {
        "astId": 2368,
        "contract": "contracts/TwitterVerification.sol:TwitterVerification",
        "label": "lastHandle",
        "offset": 0,
        "slot": "12",
        "type": "t_bytes32"
      }
    ],
    "types": {
      "t_address": {
        "encoding": "inplace",
        "label": "address",
        "numberOfBytes": "20"
      },
      "t_bytes32": {
        "encoding": "inplace",
        "label": "bytes32",
        "numberOfBytes": "32"
      },
      "t_bytes_storage": {
        "encoding": "bytes",
        "label": "bytes",
        "numberOfBytes": "32"
      },
      "t_contract(ChainlinkRequestInterface)748": {
        "encoding": "inplace",
        "label": "contract ChainlinkRequestInterface",
        "numberOfBytes": "20"
      },
      "t_contract(ENSInterface)828": {
        "encoding": "inplace",
        "label": "contract ENSInterface",
        "numberOfBytes": "20"
      },
      "t_contract(LinkTokenInterface)923": {
        "encoding": "inplace",
        "label": "contract LinkTokenInterface",
        "numberOfBytes": "20"
      },
      "t_mapping(t_address,t_bytes32)": {
        "encoding": "mapping",
        "key": "t_address",
        "label": "mapping(address => bytes32)",
        "numberOfBytes": "32",
        "value": "t_bytes32"
      },
      "t_mapping(t_address,t_bytes_storage)": {
        "encoding": "mapping",
        "key": "t_address",
        "label": "mapping(address => bytes)",
        "numberOfBytes": "32",
        "value": "t_bytes_storage"
      },
      "t_mapping(t_bytes32,t_address)": {
        "encoding": "mapping",
        "key": "t_bytes32",
        "label": "mapping(bytes32 => address)",
        "numberOfBytes": "32",
        "value": "t_address"
      },
      "t_uint256": {
        "encoding": "inplace",
        "label": "uint256",
        "numberOfBytes": "32"
      }
    }
  }
}