{
  "address": "0x616088e1fd1366ec4f7F7341a9aed4Cfd61D1700",
  "abi": [
    {
      "inputs": [],
      "stateMutability": "nonpayable",
      "type": "constructor"
    },
    {
      "anonymous": false,
      "inputs": [
        {
          "indexed": true,
          "internalType": "address",
          "name": "initiator",
          "type": "address"
        },
        {
          "indexed": false,
          "internalType": "bytes",
          "name": "signature",
          "type": "bytes"
        },
        {
          "indexed": false,
          "internalType": "bytes32",
          "name": "requestId",
          "type": "bytes32"
        }
      ],
      "name": "BeginVerification",
      "type": "event"
    },
    {
      "anonymous": false,
      "inputs": [
        {
          "indexed": true,
          "internalType": "bytes32",
          "name": "id",
          "type": "bytes32"
        }
      ],
      "name": "ChainlinkCancelled",
      "type": "event"
    },
    {
      "anonymous": false,
      "inputs": [
        {
          "indexed": true,
          "internalType": "bytes32",
          "name": "id",
          "type": "bytes32"
        }
      ],
      "name": "ChainlinkFulfilled",
      "type": "event"
    },
    {
      "anonymous": false,
      "inputs": [
        {
          "indexed": true,
          "internalType": "bytes32",
          "name": "id",
          "type": "bytes32"
        }
      ],
      "name": "ChainlinkRequested",
      "type": "event"
    },
    {
      "anonymous": false,
      "inputs": [
        {
          "indexed": true,
          "internalType": "address",
          "name": "initiator",
          "type": "address"
        },
        {
          "indexed": false,
          "internalType": "bytes32",
          "name": "verifiedHandle",
          "type": "bytes32"
        },
        {
          "indexed": false,
          "internalType": "bytes32",
          "name": "requestId",
          "type": "bytes32"
        }
      ],
      "name": "ConfirmVerification",
      "type": "event"
    },
    {
      "inputs": [
        {
          "internalType": "bytes32",
          "name": "_bytes32",
          "type": "bytes32"
        }
      ],
      "name": "bytes32ToString",
      "outputs": [
        {
          "internalType": "string",
          "name": "",
          "type": "string"
        }
      ],
      "stateMutability": "pure",
      "type": "function"
    },
    {
      "inputs": [
        {
          "internalType": "bytes32",
          "name": "_requestId",
          "type": "bytes32"
        },
        {
          "internalType": "bytes32",
          "name": "_handle",
          "type": "bytes32"
        }
      ],
      "name": "fulfillTwitterVerification",
      "outputs": [],
      "stateMutability": "nonpayable",
      "type": "function"
    },
    {
      "inputs": [
        {
          "internalType": "bytes32",
          "name": "",
          "type": "bytes32"
        }
      ],
      "name": "requestIdToAddress",
      "outputs": [
        {
          "internalType": "address",
          "name": "",
          "type": "address"
        }
      ],
      "stateMutability": "view",
      "type": "function"
    },
    {
      "inputs": [
        {
          "internalType": "bytes",
          "name": "signature",
          "type": "bytes"
        },
        {
          "internalType": "string",
          "name": "tweetId",
          "type": "string"
        }
      ],
      "name": "requestTwitterVerification",
      "outputs": [
        {
          "internalType": "bytes32",
          "name": "requestId",
          "type": "bytes32"
        }
      ],
      "stateMutability": "nonpayable",
      "type": "function"
    },
    {
      "inputs": [
        {
          "internalType": "address",
          "name": "",
          "type": "address"
        }
      ],
      "name": "userToSignature",
      "outputs": [
        {
          "internalType": "bytes",
          "name": "",
          "type": "bytes"
        }
      ],
      "stateMutability": "view",
      "type": "function"
    },
    {
      "inputs": [
        {
          "internalType": "address",
          "name": "",
          "type": "address"
        }
      ],
      "name": "verifiedHandle",
      "outputs": [
        {
          "internalType": "bytes32",
          "name": "",
          "type": "bytes32"
        }
      ],
      "stateMutability": "view",
      "type": "function"
    }
  ],
  "transactionHash": "0xfb651590de72eea41539294aff3d05d93f6ba45232c6ed3b69b659cd5687e3db",
  "args": [],
  "solcInputHash": "050622d7a3564f1706fe5cbe4bf4f381",
  "bytecode": "0x6080604052600160045534801561001557600080fd5b5061003373326c977e6efc84e512bb9c30f76e30c160ed06fb61008e565b600980546001600160a01b03191673373ed9e1de6b01ea2e479e012624bdd01e6fc2381790557f3531643230666439346664653436663938343935643633333133626265353166600a5567016345785d8a0000600b556100b0565b600280546001600160a01b0319166001600160a01b0392909216919091179055565b61117b806100bf6000396000f3fe608060405234801561001057600080fd5b50600436106100625760003560e01c806305d3ba8e146100675780632847a5a81461008c5780639201de55146101cb578063a00dea0e1461025d578063b56f12d114610283578063bc64beee146102a9575b600080fd5b61008a6004803603604081101561007d57600080fd5b50803590602001356102e2565b005b6101b9600480360360408110156100a257600080fd5b8101906020810181356401000000008111156100bd57600080fd5b8201836020820111156100cf57600080fd5b803590602001918460018302840111640100000000831117156100f157600080fd5b91908080601f016020809104026020016040519081016040528093929190818152602001838380828437600092019190915250929594936020810193503591505064010000000081111561014457600080fd5b82018360208201111561015657600080fd5b8035906020019184600183028401116401000000008311171561017857600080fd5b91908080601f01602080910402602001604051908101604052809392919081815260200183838082843760009201919091525092955061063d945050505050565b60408051918252519081900360200190f35b6101e8600480360360208110156101e157600080fd5b50356107c5565b6040805160208082528351818301528351919283929083019185019080838360005b8381101561022257818101518382015260200161020a565b50505050905090810190601f16801561024f5780820380516001836020036101000a031916815260200191505b509250505060405180910390f35b6101b96004803603602081101561027357600080fd5b50356001600160a01b03166108d2565b6101e86004803603602081101561029957600080fd5b50356001600160a01b03166108e4565b6102c6600480360360208110156102bf57600080fd5b503561097f565b604080516001600160a01b039092168252519081900360200190f35b60008281526005602052604090205482906001600160a01b031633146103395760405162461bcd60e51b815260040180806020018281038252602881526020018061111e6028913960400191505060405180910390fd5b60008181526005602052604080822080546001600160a01b03191690555182917f7cc135e0cebb02c3480ae5d74d377283180a2601f8f644edf7987b009316c63a91a26060610387836107c5565b6000858152600760209081526040808320546001600160a01b0316808452600683529281902080548251601f60026000196001851615610100020190931692909204918201859004850281018501909352808352949550929360609391928301828280156104365780601f1061040b57610100808354040283529160200191610436565b820191906000526020600020905b81548152906001019060200180831161041957829003601f168201915b505050505090506000736e8A454163A66627F2f9Df3626959d76Cb6cD88a63a3bb7d1785846040518363ffffffff1660e01b8152600401808060200180602001838103835285818151815260200191508051906020019080838360005b838110156104ab578181015183820152602001610493565b50505050905090810190601f1680156104d85780820380516001836020036101000a031916815260200191505b50838103825284518152845160209182019186019080838360005b8381101561050b5781810151838201526020016104f3565b50505050905090810190601f1680156105385780820380516001836020036101000a031916815260200191505b5094505050505060206040518083038186803b15801561055757600080fd5b505af415801561056b573d6000803e3d6000fd5b505050506040513d602081101561058157600080fd5b505190506001600160a01b03808216908416146105dd576040805162461bcd60e51b8152602060048201526015602482015274082c8c8e4cae6e64088decae6dc4ee8409ac2e8c6d605b1b604482015290519081900360640190fd5b6001600160a01b03811660008181526008602090815260409182902089905581518981529081018a905281517fbc96f3e4413b5cf780c61cc23b93a70f99bd8d2829b8fe49ad2c98d84b754143929181900390910190a250505050505050565b3360009081526006602090815260408220845161065c92860190611018565b50610665611096565b600a5461067a90306302e9dd4760e11b61099a565b6040805180820190915260098152687369676e617475726560b81b60208201529091506106a9908290866109bf565b6040805180820190915260078152661d1dd9595d125960ca1b60208201526106d3908290856109bf565b600954600b546000916106f3916001600160a01b039091169084906109e2565b600081815260076020908152604080832080546001600160a01b0319163390811790915581518084018690528281528a51928101929092528951949550937fd390331e3366daff21b54ded327450a21827abfaaca0e5bba3804feb4b30a9d5938a9387939283926060840192870191908190849084905b8381101561078257818101518382015260200161076a565b50505050905090810190601f1680156107af5780820380516001836020036101000a031916815260200191505b50935050505060405180910390a2505092915050565b606060005b60208160ff161080156107f85750828160ff16602081106107e757fe5b1a60f81b6001600160f81b03191615155b15610805576001016107ca565b60608160ff1667ffffffffffffffff8111801561082157600080fd5b506040519080825280601f01601f19166020018201604052801561084c576020820181803683370190505b509050600091505b60208260ff161080156108825750838260ff166020811061087157fe5b1a60f81b6001600160f81b03191615155b156108cb57838260ff166020811061089657fe5b1a60f81b818360ff16815181106108a957fe5b60200101906001600160f81b031916908160001a905350600190910190610854565b9392505050565b60086020526000908152604090205481565b60066020908152600091825260409182902080548351601f6002600019610100600186161502019093169290920491820184900484028101840190945280845290918301828280156109775780601f1061094c57610100808354040283529160200191610977565b820191906000526020600020905b81548152906001019060200180831161095a57829003601f168201915b505050505081565b6007602052600090815260409020546001600160a01b031681565b6109a2611096565b6109aa611096565b6109b681868686610bb0565b95945050505050565b60808301516109ce9083610bed565b60808301516109dd9082610bed565b505050565b6004546040805130606090811b60208084019190915260348084018690528451808503909101815260549093018452825192810192909220908601939093526000838152600590915281812080546001600160a01b0319166001600160a01b038816179055905182917fb5e6e01e79f91267dc17b4e6314d5d4d03593d2ceee0fbb452b750bd70ea5af991a26002546001600160a01b0316634000aea08584610a8a87610c04565b6040518463ffffffff1660e01b815260040180846001600160a01b0316815260200183815260200180602001828103825283818151815260200191508051906020019080838360005b83811015610aeb578181015183820152602001610ad3565b50505050905090810190601f168015610b185780820380516001836020036101000a031916815260200191505b50945050505050602060405180830381600087803b158015610b3957600080fd5b505af1158015610b4d573d6000803e3d6000fd5b505050506040513d6020811015610b6357600080fd5b5051610ba05760405162461bcd60e51b81526004018080602001828103825260238152602001806110fb6023913960400191505060405180910390fd5b6004805460010190559392505050565b610bb8611096565b610bc88560800151610100610d28565b50509183526001600160a01b031660208301526001600160e01b031916604082015290565b610bfa8260038351610d68565b6109dd8282610e42565b6060634042994660e01b6000808460000151856020015186604001518760600151600189608001516000015160405160240180896001600160a01b03168152602001888152602001878152602001866001600160a01b03168152602001856001600160e01b031916815260200184815260200183815260200180602001828103825283818151815260200191508051906020019080838360005b83811015610cb6578181015183820152602001610c9e565b50505050905090810190601f168015610ce35780820380516001836020036101000a031916815260200191505b5060408051601f198184030181529190526020810180516001600160e01b03166001600160e01b0319909d169c909c17909b5250989950505050505050505050919050565b610d306110cb565b6020820615610d455760208206602003820191505b506020808301829052604080518085526000815283019091019052815b92915050565b60178111610d8957610d838360e0600585901b168317610e5c565b506109dd565b60ff8111610db357610da6836018611fe0600586901b1617610e5c565b50610d8383826001610e74565b61ffff8111610dde57610dd1836019611fe0600586901b1617610e5c565b50610d8383826002610e74565b63ffffffff8111610e0b57610dfe83601a611fe0600586901b1617610e5c565b50610d8383826004610e74565b67ffffffffffffffff81116109dd57610e2f83601b611fe0600586901b1617610e5c565b50610e3c83826008610e74565b50505050565b610e4a6110cb565b6108cb83846000015151848551610e95565b610e646110cb565b6108cb8384600001515184610f41565b610e7c6110cb565b610e8d848560000151518585610f8c565b949350505050565b610e9d6110cb565b8251821115610eab57600080fd5b84602001518285011115610ed557610ed585610ecd8760200151878601610fea565b600202611001565b600080865180518760208301019350808887011115610ef45787860182525b505050602084015b60208410610f1b5780518252601f199093019260209182019101610efc565b51815160001960208690036101000a019081169019919091161790525083949350505050565b610f496110cb565b83602001518310610f6557610f65848560200151600202611001565b835180516020858301018481535080851415610f82576001810182525b5093949350505050565b610f946110cb565b84602001518483011115610fb157610fb185858401600202611001565b60006001836101000a039050855183868201018583198251161781525080518487011115610fdf5783860181525b509495945050505050565b600081831115610ffb575081610d62565b50919050565b815161100d8383610d28565b50610e3c8382610e42565b828054600181600116156101000203166002900490600052602060002090601f016020900481019282601f1061105957805160ff1916838001178555611086565b82800160010185558215611086579182015b8281111561108657825182559160200191906001019061106b565b506110929291506110e5565b5090565b6040805160a0810182526000808252602082018190529181018290526060810191909152608081016110c66110cb565b905290565b604051806040016040528060608152602001600081525090565b5b8082111561109257600081556001016110e656fe756e61626c6520746f207472616e73666572416e6443616c6c20746f206f7261636c65536f75726365206d75737420626520746865206f7261636c65206f66207468652072657175657374a26469706673582212203a638ddd0122ad935fba92f7d7424b8be5d438113176d91d8a0bb85756f7bdce64736f6c634300060c0033",
  "deployedBytecode": "0x608060405234801561001057600080fd5b50600436106100625760003560e01c806305d3ba8e146100675780632847a5a81461008c5780639201de55146101cb578063a00dea0e1461025d578063b56f12d114610283578063bc64beee146102a9575b600080fd5b61008a6004803603604081101561007d57600080fd5b50803590602001356102e2565b005b6101b9600480360360408110156100a257600080fd5b8101906020810181356401000000008111156100bd57600080fd5b8201836020820111156100cf57600080fd5b803590602001918460018302840111640100000000831117156100f157600080fd5b91908080601f016020809104026020016040519081016040528093929190818152602001838380828437600092019190915250929594936020810193503591505064010000000081111561014457600080fd5b82018360208201111561015657600080fd5b8035906020019184600183028401116401000000008311171561017857600080fd5b91908080601f01602080910402602001604051908101604052809392919081815260200183838082843760009201919091525092955061063d945050505050565b60408051918252519081900360200190f35b6101e8600480360360208110156101e157600080fd5b50356107c5565b6040805160208082528351818301528351919283929083019185019080838360005b8381101561022257818101518382015260200161020a565b50505050905090810190601f16801561024f5780820380516001836020036101000a031916815260200191505b509250505060405180910390f35b6101b96004803603602081101561027357600080fd5b50356001600160a01b03166108d2565b6101e86004803603602081101561029957600080fd5b50356001600160a01b03166108e4565b6102c6600480360360208110156102bf57600080fd5b503561097f565b604080516001600160a01b039092168252519081900360200190f35b60008281526005602052604090205482906001600160a01b031633146103395760405162461bcd60e51b815260040180806020018281038252602881526020018061111e6028913960400191505060405180910390fd5b60008181526005602052604080822080546001600160a01b03191690555182917f7cc135e0cebb02c3480ae5d74d377283180a2601f8f644edf7987b009316c63a91a26060610387836107c5565b6000858152600760209081526040808320546001600160a01b0316808452600683529281902080548251601f60026000196001851615610100020190931692909204918201859004850281018501909352808352949550929360609391928301828280156104365780601f1061040b57610100808354040283529160200191610436565b820191906000526020600020905b81548152906001019060200180831161041957829003601f168201915b50505050509050600073__$8e8fa573e9761eaa0ad5e52d580c5cbf29$__63a3bb7d1785846040518363ffffffff1660e01b8152600401808060200180602001838103835285818151815260200191508051906020019080838360005b838110156104ab578181015183820152602001610493565b50505050905090810190601f1680156104d85780820380516001836020036101000a031916815260200191505b50838103825284518152845160209182019186019080838360005b8381101561050b5781810151838201526020016104f3565b50505050905090810190601f1680156105385780820380516001836020036101000a031916815260200191505b5094505050505060206040518083038186803b15801561055757600080fd5b505af415801561056b573d6000803e3d6000fd5b505050506040513d602081101561058157600080fd5b505190506001600160a01b03808216908416146105dd576040805162461bcd60e51b8152602060048201526015602482015274082c8c8e4cae6e64088decae6dc4ee8409ac2e8c6d605b1b604482015290519081900360640190fd5b6001600160a01b03811660008181526008602090815260409182902089905581518981529081018a905281517fbc96f3e4413b5cf780c61cc23b93a70f99bd8d2829b8fe49ad2c98d84b754143929181900390910190a250505050505050565b3360009081526006602090815260408220845161065c92860190611018565b50610665611096565b600a5461067a90306302e9dd4760e11b61099a565b6040805180820190915260098152687369676e617475726560b81b60208201529091506106a9908290866109bf565b6040805180820190915260078152661d1dd9595d125960ca1b60208201526106d3908290856109bf565b600954600b546000916106f3916001600160a01b039091169084906109e2565b600081815260076020908152604080832080546001600160a01b0319163390811790915581518084018690528281528a51928101929092528951949550937fd390331e3366daff21b54ded327450a21827abfaaca0e5bba3804feb4b30a9d5938a9387939283926060840192870191908190849084905b8381101561078257818101518382015260200161076a565b50505050905090810190601f1680156107af5780820380516001836020036101000a031916815260200191505b50935050505060405180910390a2505092915050565b606060005b60208160ff161080156107f85750828160ff16602081106107e757fe5b1a60f81b6001600160f81b03191615155b15610805576001016107ca565b60608160ff1667ffffffffffffffff8111801561082157600080fd5b506040519080825280601f01601f19166020018201604052801561084c576020820181803683370190505b509050600091505b60208260ff161080156108825750838260ff166020811061087157fe5b1a60f81b6001600160f81b03191615155b156108cb57838260ff166020811061089657fe5b1a60f81b818360ff16815181106108a957fe5b60200101906001600160f81b031916908160001a905350600190910190610854565b9392505050565b60086020526000908152604090205481565b60066020908152600091825260409182902080548351601f6002600019610100600186161502019093169290920491820184900484028101840190945280845290918301828280156109775780601f1061094c57610100808354040283529160200191610977565b820191906000526020600020905b81548152906001019060200180831161095a57829003601f168201915b505050505081565b6007602052600090815260409020546001600160a01b031681565b6109a2611096565b6109aa611096565b6109b681868686610bb0565b95945050505050565b60808301516109ce9083610bed565b60808301516109dd9082610bed565b505050565b6004546040805130606090811b60208084019190915260348084018690528451808503909101815260549093018452825192810192909220908601939093526000838152600590915281812080546001600160a01b0319166001600160a01b038816179055905182917fb5e6e01e79f91267dc17b4e6314d5d4d03593d2ceee0fbb452b750bd70ea5af991a26002546001600160a01b0316634000aea08584610a8a87610c04565b6040518463ffffffff1660e01b815260040180846001600160a01b0316815260200183815260200180602001828103825283818151815260200191508051906020019080838360005b83811015610aeb578181015183820152602001610ad3565b50505050905090810190601f168015610b185780820380516001836020036101000a031916815260200191505b50945050505050602060405180830381600087803b158015610b3957600080fd5b505af1158015610b4d573d6000803e3d6000fd5b505050506040513d6020811015610b6357600080fd5b5051610ba05760405162461bcd60e51b81526004018080602001828103825260238152602001806110fb6023913960400191505060405180910390fd5b6004805460010190559392505050565b610bb8611096565b610bc88560800151610100610d28565b50509183526001600160a01b031660208301526001600160e01b031916604082015290565b610bfa8260038351610d68565b6109dd8282610e42565b6060634042994660e01b6000808460000151856020015186604001518760600151600189608001516000015160405160240180896001600160a01b03168152602001888152602001878152602001866001600160a01b03168152602001856001600160e01b031916815260200184815260200183815260200180602001828103825283818151815260200191508051906020019080838360005b83811015610cb6578181015183820152602001610c9e565b50505050905090810190601f168015610ce35780820380516001836020036101000a031916815260200191505b5060408051601f198184030181529190526020810180516001600160e01b03166001600160e01b0319909d169c909c17909b5250989950505050505050505050919050565b610d306110cb565b6020820615610d455760208206602003820191505b506020808301829052604080518085526000815283019091019052815b92915050565b60178111610d8957610d838360e0600585901b168317610e5c565b506109dd565b60ff8111610db357610da6836018611fe0600586901b1617610e5c565b50610d8383826001610e74565b61ffff8111610dde57610dd1836019611fe0600586901b1617610e5c565b50610d8383826002610e74565b63ffffffff8111610e0b57610dfe83601a611fe0600586901b1617610e5c565b50610d8383826004610e74565b67ffffffffffffffff81116109dd57610e2f83601b611fe0600586901b1617610e5c565b50610e3c83826008610e74565b50505050565b610e4a6110cb565b6108cb83846000015151848551610e95565b610e646110cb565b6108cb8384600001515184610f41565b610e7c6110cb565b610e8d848560000151518585610f8c565b949350505050565b610e9d6110cb565b8251821115610eab57600080fd5b84602001518285011115610ed557610ed585610ecd8760200151878601610fea565b600202611001565b600080865180518760208301019350808887011115610ef45787860182525b505050602084015b60208410610f1b5780518252601f199093019260209182019101610efc565b51815160001960208690036101000a019081169019919091161790525083949350505050565b610f496110cb565b83602001518310610f6557610f65848560200151600202611001565b835180516020858301018481535080851415610f82576001810182525b5093949350505050565b610f946110cb565b84602001518483011115610fb157610fb185858401600202611001565b60006001836101000a039050855183868201018583198251161781525080518487011115610fdf5783860181525b509495945050505050565b600081831115610ffb575081610d62565b50919050565b815161100d8383610d28565b50610e3c8382610e42565b828054600181600116156101000203166002900490600052602060002090601f016020900481019282601f1061105957805160ff1916838001178555611086565b82800160010185558215611086579182015b8281111561108657825182559160200191906001019061106b565b506110929291506110e5565b5090565b6040805160a0810182526000808252602082018190529181018290526060810191909152608081016110c66110cb565b905290565b604051806040016040528060608152602001600081525090565b5b8082111561109257600081556001016110e656fe756e61626c6520746f207472616e73666572416e6443616c6c20746f206f7261636c65536f75726365206d75737420626520746865206f7261636c65206f66207468652072657175657374a26469706673582212203a638ddd0122ad935fba92f7d7424b8be5d438113176d91d8a0bb85756f7bdce64736f6c634300060c0033",
  "libraries": {
    "Signature": "0x6e8A454163A66627F2f9Df3626959d76Cb6cD88a"
  },
  "devdoc": {
    "kind": "dev",
    "methods": {},
    "version": 1
  },
  "userdoc": {
    "kind": "user",
    "methods": {
      "constructor": "Network: Mumbai Link: 0x326C977E6efc84E512bB9C30f76E30c160eD06FB Oracle: 0x373ed9E1De6B01ea2e479E012624Bdd01E6fC238 Job ID: 51d20fd94fde46f98495d63313bbe51f Fee: 0.1 LINK",
      "fulfillTwitterVerification(bytes32,bytes32)": {
        "notice": "Receive the response in the form of uint256"
      }
    },
    "version": 1
  },
  "storageLayout": {
    "storage": [
      {
        "astId": 303,
        "contract": "contracts/TwitterVerification.sol:TwitterVerification",
        "label": "ens",
        "offset": 0,
        "slot": "0",
        "type": "t_contract(ENSInterface)828"
      },
      {
        "astId": 305,
        "contract": "contracts/TwitterVerification.sol:TwitterVerification",
        "label": "ensNode",
        "offset": 0,
        "slot": "1",
        "type": "t_bytes32"
      },
      {
        "astId": 307,
        "contract": "contracts/TwitterVerification.sol:TwitterVerification",
        "label": "link",
        "offset": 0,
        "slot": "2",
        "type": "t_contract(LinkTokenInterface)923"
      },
      {
        "astId": 309,
        "contract": "contracts/TwitterVerification.sol:TwitterVerification",
        "label": "oracle",
        "offset": 0,
        "slot": "3",
        "type": "t_contract(ChainlinkRequestInterface)748"
      },
      {
        "astId": 312,
        "contract": "contracts/TwitterVerification.sol:TwitterVerification",
        "label": "requestCount",
        "offset": 0,
        "slot": "4",
        "type": "t_uint256"
      },
      {
        "astId": 316,
        "contract": "contracts/TwitterVerification.sol:TwitterVerification",
        "label": "pendingRequests",
        "offset": 0,
        "slot": "5",
        "type": "t_mapping(t_bytes32,t_address)"
      },
      {
        "astId": 2351,
        "contract": "contracts/TwitterVerification.sol:TwitterVerification",
        "label": "userToSignature",
        "offset": 0,
        "slot": "6",
        "type": "t_mapping(t_address,t_bytes_storage)"
      },
      {
        "astId": 2355,
        "contract": "contracts/TwitterVerification.sol:TwitterVerification",
        "label": "requestIdToAddress",
        "offset": 0,
        "slot": "7",
        "type": "t_mapping(t_bytes32,t_address)"
      },
      {
        "astId": 2359,
        "contract": "contracts/TwitterVerification.sol:TwitterVerification",
        "label": "verifiedHandle",
        "offset": 0,
        "slot": "8",
        "type": "t_mapping(t_address,t_bytes32)"
      },
      {
        "astId": 2362,
        "contract": "contracts/TwitterVerification.sol:TwitterVerification",
        "label": "oracle",
        "offset": 0,
        "slot": "9",
        "type": "t_address"
      },
      {
        "astId": 2364,
        "contract": "contracts/TwitterVerification.sol:TwitterVerification",
        "label": "jobId",
        "offset": 0,
        "slot": "10",
        "type": "t_bytes32"
      },
      {
        "astId": 2366,
        "contract": "contracts/TwitterVerification.sol:TwitterVerification",
        "label": "fee",
        "offset": 0,
        "slot": "11",
        "type": "t_uint256"
      }
    ],
    "types": {
      "t_address": {
        "encoding": "inplace",
        "label": "address",
        "numberOfBytes": "20"
      },
      "t_bytes32": {
        "encoding": "inplace",
        "label": "bytes32",
        "numberOfBytes": "32"
      },
      "t_bytes_storage": {
        "encoding": "bytes",
        "label": "bytes",
        "numberOfBytes": "32"
      },
      "t_contract(ChainlinkRequestInterface)748": {
        "encoding": "inplace",
        "label": "contract ChainlinkRequestInterface",
        "numberOfBytes": "20"
      },
      "t_contract(ENSInterface)828": {
        "encoding": "inplace",
        "label": "contract ENSInterface",
        "numberOfBytes": "20"
      },
      "t_contract(LinkTokenInterface)923": {
        "encoding": "inplace",
        "label": "contract LinkTokenInterface",
        "numberOfBytes": "20"
      },
      "t_mapping(t_address,t_bytes32)": {
        "encoding": "mapping",
        "key": "t_address",
        "label": "mapping(address => bytes32)",
        "numberOfBytes": "32",
        "value": "t_bytes32"
      },
      "t_mapping(t_address,t_bytes_storage)": {
        "encoding": "mapping",
        "key": "t_address",
        "label": "mapping(address => bytes)",
        "numberOfBytes": "32",
        "value": "t_bytes_storage"
      },
      "t_mapping(t_bytes32,t_address)": {
        "encoding": "mapping",
        "key": "t_bytes32",
        "label": "mapping(bytes32 => address)",
        "numberOfBytes": "32",
        "value": "t_address"
      },
      "t_uint256": {
        "encoding": "inplace",
        "label": "uint256",
        "numberOfBytes": "32"
      }
    }
  }
}